:020000040800F2
:10000000A80900200D020008A90E0008CD0B000869
:100010000D0E000821090008CF2E00080000000086
:10002000000000000000000000000000AD1A000801
:10003000E5090008000000006D110008AD2400086B
:1000400027020008270200082702000827020008EC
:1000500027020008270200082702000827020008DC
:1000600027020008270200082702000827020008CC
:1000700027020008270200082702000827020008BC
:100080002702000827020008BD0200082702000816
:10009000270200082702000827020008270200089C
:1000A0002702000805270008270200082702000889
:1000B000270200082702000827020008270200087C
:1000C000270200082702000827020008270200086C
:1000D00027020008952C00082702000827020008C4
:1000E000270200082702000827020008270200084C
:1000F000270200082702000827020008270200083C
:10010000270200082702000827020008270200082B
:10011000270200082702000827020008270200081B
:10012000270200082702000827020008270200080B
:1001300000F002F800F05AF80AA090E8000C82449F
:100140008344AAF10107DA4501D100F04FF8AFF27C
:10015000090EBAE80F0013F0010F18BFFB1A43F0A5
:100160000103184700360000203600000A444FF013
:10017000000C10F8013B13F0070408BF10F8014B06
:100180001D1108BF10F8015B641E05D010F8016B4B
:10019000641E01F8016BF9D113F0080F1EBF10F8AF
:1001A000014BAD1C0C1B09D16D1E58BF01F801CBD2
:1001B000FAD505E014F8016B01F8016B6D1EF9D555
:1001C0009142D6D37047000000230024002500266A
:1001D000103A28BF78C1FBD8520728BF30C148BFAA
:1001E0000B6070471FB51FBD10B510BD00F033F890
:1001F0001146FFF7F7FF02F06FFE00F051F803B46D
:10020000FFF7F2FF03BC02F064FE000009488047DC
:1002100009480047FEE7FEE7FEE7FEE7FEE7FEE7E8
:10022000FEE7FEE7FEE7FEE704480549054A064B00
:1002300070470000ED24000831010008A8030020E9
:10024000A8090020A8050020A805002070477047D5
:10025000704770477047754600F02CF8AE460500B1
:100260006946534620F00700854618B020B5FFF7D1
:10027000DBFFBDE820404FF000064FF000074FF0D5
:1002800000084FF0000B21F00701AC46ACE8C009B4
:10029000ACE8C009ACE8C009ACE8C0098D467047BD
:1002A00010B50446AFF300802046BDE81040FFF7CC
:1002B000A6BF000000487047480300201CB56A48EC
:1002C000006800F00400042879D102206749087012
:1002D000C01F6549086066480078012844D100F0D5
:1002E00097FD01F053FB01F085FE019061480199F3
:1002F00001600068009000F041FB01905E480199A8
:100300000160006800905D48B0F90010009800F0AE
:10031000D9FE01905A48019901602021594800F006
:100320003FFC5548006801905748006843F6991211
:100330000090019900F0FAFF2021524800F032FCB1
:1003400000F0BCFF5148006800904C48B0F9001024
:10035000009800F0FBFC01904B4801990160006897
:10036000019001F0A5FB06E000F078FD002048496F
:1003700008704249088046480078022806D0444860
:100380000078012802D04248007828B94148B0F9E5
:1003900000003A49088045E03D480078032841D1F3
:1003A00001F094FA354908803B48007840B94FF491
:1003B0007A703A49088000203949088012E052E0FA
:1003C0003548007801280DD101F08CFA35490880B4
:1003D00001F088FA0446344A2146852000F026FEC2
:1003E0002E4908802D48B0F9000030490880244A81
:1003F000B2F900102D4AB2F900002D4A00F016FEA5
:10040000224908802648B0F90000284948801C4A43
:10041000B2F90210254AB2F90200264A00F006FE9F
:100420001A49488024480078282817DD00202249EE
:10043000087010490988C1F3072002F0E5FB0D4957
:10044000087802F0E1FB0B494988C1F3072002F06C
:10045000DBFB0849887802F0D7FB04E016480078F7
:10046000401C154908701CBD002401402E000020CE
:1004700032000020580000205C00002042000020D4
:1004800060000020000801406C000020680000208F
:100490007000002088000020340000203A00002076
:1004A0003C00002036000020A80200203E00002072
:1004B000880200206802002039000020CA43026040
:1004C000704721B1826842F00102826003E08268D5
:1004D00022F001028260704710B50446124884423F
:1004E00008D10121401500F06FFE0021601500F0D9
:1004F0006BFE17E00D48844208D10121001500F081
:1005000063FE0021201500F05FFE0BE008488442E6
:1005100008D10121C80300F057FE00214FF400402C
:1005200000F052FE10BD00000024014000280140F0
:10053000003C014021B1826842F40042826003E045
:10054000826822F40042826070470A460021816876
:1005500021F4E041114381607047014600208A6820
:1005600002F004020AB1012000E0002070470246B8
:10057000002013680B400BB1012000E00020704701
:1005800008B5024600200090009201F12800009B6F
:10059000184400900098006880B208BD10B500F0C3
:1005A00075F900F083F810BD10B50023CBB21AB175
:1005B00044681C43446002E044689C43446010BDAE
:1005C00030B502460020002350680F4C20400D79C2
:1005D0000C6844EA05242043506090680B4C20408E
:1005E000D1E902542C434D7944EA450420439060FC
:1005F000D06A20F470000C7C641EE4B2234340EA0D
:100600000350D06230BD0000FFFEF0FFFDF7F1FFA8
:10061000F0B504461546002000220026092911DD08
:10062000E068A1F10A0707EB470C072707FA0CF26D
:100630009043A1F10A0707EB470703FA07F21043BB
:10064000E0600CE0206901EB410C072707FA0CF28F
:10065000904301EB410703FA07F210432061A06BBE
:10066000C0F30156EF1C06F1010CA7EB0C0707EBDA
:10067000870C1F2707FA0CF29043EF1C06F1010CC0
:10068000A7EB0C0707EB870701FA07F21043A063FB
:10069000F0BD10B50A4600210023816B21F4401102
:1006A000531E41EA0351816310BD000000B587B0BD
:1006B0005F48FFF711FF01215D48FFF702FF02A825
:1006C00000F0DBF84FF48030029001208DF80C0030
:1006D00000208DF80D004FF4602004904FF400606E
:1006E000059003208DF8180002A95148FFF768FF14
:1006F0004F4800F0BDF800BF4D48FFF72EFF00281F
:10070000FAD100224FF490614948FFF74DFF0020D5
:100710004849088048490880484908804FF4E0412A
:100720004348FFF712FF01214148FFF703FF032170
:100730003F48FFF7AEFF01231A4606213C48FFF76A
:1007400067FF0123022207213948FFF761FF0123D8
:1007500003220E213648FFF75BFF04213448FFF7E0
:10076000ADFE0121324800F078F8102034490880AD
:1007700031E000BF04212E48FFF7F9FE0028F9D030
:1007800014212B48FFF7FCFE2A49098801EBE00001
:100790002849088018212648FFF7F2FE26490988D3
:1007A00001EBE000244908801C212148FFF7E8FE06
:1007B0002249098801EBE0002049088004211C48F7
:1007C000FFF77CFE01211A4800F047F81C4800881A
:1007D000401E1B4908801A4800880028C9D14FF4E0
:1007E00080511348FFF7B1FE01211148FFF7A2FE27
:1007F00001224FF4B8610E48FFF7D6FE4FF4A06017
:1008000000F08CFB12208DF8040001208DF805000B
:1008100000208DF8060001208DF8070001A800F0E7
:1008200045FB0121024800F00DF807B000BD0000B3
:10083000002401404C0000204E0000205000002009
:100840005200002021B1826842F4A002826003E0DD
:10085000826822F4A0028260704721B1826842F46B
:100860000212826003E0826822F402128260704702
:10087000816841F0040181607047002101600171CD
:1008800041718160C16001210174704708B5012187
:10089000480200F089FC0121880200F085FC01215A
:1008A000084600F071FC4FF4004000F061FC40206D
:1008B000ADF8000000208DF803006946154800F0EF
:1008C00092F88020ADF8000000208DF80300694602
:1008D000104800F088F81020ADF8000000208DF8D6
:1008E000030069460C4800F07EF80420ADF80000D3
:1008F00000208DF803006946074800F074F80120D5
:10090000ADF8000000208DF803006946034800F0B0
:100910006AF808BD0008014000100140000C0140C9
:1009200000BFFEE72DE9F84F06460F461148B0F923
:10093000000002F0F7F80090BDF9020000FB06F499
:10094000BDF9000000FB07F5A946EA1705EB524286
:10095000D21311B2A246E21704EB5242D21310B2E4
:1009600001F0B8FC80460448A0F800804046BDE88D
:10097000F88F0000A40000206401002031B581B090
:10098000BDF80400ADF80000BDF9040044F6E6151A
:1009900000FB05F1CD1701EB5545E913BDF9060044
:1009A00044F6E61500FB05F2D51702EB5545EA13B0
:1009B0000C4613466042C01AC01A00B2ADF80200DD
:1009C00000983CBD29B1064A52680243044B5A6064
:1009D00004E0034A52688243014B5A6070470000AA
:1009E000002004E070472DE9F04102460025002672
:1009F000002000230024002791F803C00CF00F050D
:100A000091F803C00CF0100CBCF1000F03D091F86A
:100A100002C04CEA050591F800C0BCF1000F31D0CE
:100A2000146800202BE04FF0010C0CFA00F3B1F831
:100A300000C00CEA03069E4220D183004FF00F0C49
:100A40000CFA03F7BC4305FA03FC4CEA040491F8E2
:100A500003C0BCF1280F06D14FF0010C0CFA00FCCA
:100A6000C2F814C00AE091F803C0BCF1480F05D1E8
:100A70004FF0010C0CFA00FCC2F810C0401C082812
:100A8000D1D31460B1F800C0BCF1FF0F34DD54685D
:100A900000202EE000F1080C4FF0010808FA0CF3DA
:100AA000B1F800C00CEA03069E4221D183004FF04A
:100AB0000F0C0CFA03F7BC4305FA03FC4CEA0404E0
:100AC00091F803C0BCF1280F05D100F1080C08FA19
:100AD0000CF8C2F8148091F803C0BCF1480F07D19C
:100AE00000F1080C4FF0010808FA0CF8C2F8108069
:100AF000401C0828CED35460BDE8F0814FF480320A
:100B00000A43826181618261826982697047000063
:100B1000F0B50A46002300240021002500F000461D
:100B2000B6F1004F02D11D4EF16901E01B4E716814
:100B3000C0F3034583B200F44016B6F5401F08D158
:100B400021F07061154E766826F07066134F7E6056
:100B500012E000F48016B6F5801F06D1032606FACF
:100B600005F4A14341F0706106E0460D360103FA39
:100B700006F6B14341F0706122B1460D360103FA29
:100B800006F6314300F00046B6F1004F02D1034EA5
:100B9000F16101E0014E7160F0BD00000000014014
:100BA000416170470161704708B52020ADF8000031
:100BB00003208DF8020010208DF8030069460248DA
:100BC000FFF711FF08BD00000008014000BFFEE76D
:100BD00000B500F081FE524908805248B0F900008B
:100BE000002804DA4F48B0F90000404202E04D48C6
:100BF000B0F9000000B24B4908804B4A1168CA178F
:100C000001EB1242121402EB82025001C21700EBF8
:100C1000D262521112B2454B1A801846B0F9000048
:100C2000002804DA1846B0F90000404202E03F48CC
:100C3000B0F9000000B23D4908803B4A1168CA176C
:100C400001EB12421214962302FB03F0C21700EBD1
:100C5000D262521112B2364B1A801846B0F9000017
:100C6000002804DA1846B0F90000404202E030489B
:100C7000B0F9000000B22E49088000F081FE002883
:100C800044D02848B0F90000192835DD2548B0F9CE
:100C900000002749B1F90010884223DB2148B0F950
:100CA00000002249B1F90010884211DC2148008877
:100CB000401C20490880084600883C2801DB0120B0
:100CC00000BD1D480078401C1B4908700020F7E754
:100CD00000201849088019480078401C17490870FE
:100CE0000020EDE700201349088015480078401CDB
:100CF000134908700020E3E700200E4908801148DE
:100D00000078401C0F4908700020D9E700200949ED
:100D100008800D480078401C0B4908700020CFE780
:100D20000E010020FE0000207C00002000010020B9
:100D3000020100200A010020040100200601002019
:100D40000501002007010020080100202DE9F341E2
:100D500082B00C46204601F0E5FE0190BDF9080086
:100D6000BDF9041000FB01F5BDF90A00BDF906103C
:100D700000FB01F6A819C01300B2ADF80000BDF9E0
:100D80000800BDF9061000FB01F7BDF90A00BDF926
:100D9000041000FB01F8A8EB0700C01300B2ADF887
:100DA0000200009804B0BDE8F081000010B54FF4D7
:100DB0007A3002F0A1F801F09FFCFFF7EFFBFFF79C
:100DC000F3FE00F009FD00F09BFD034A03490448CF
:100DD00000F0C2F810BD0000A80200206802002048
:100DE0008802002010B507480078012808D10020AB
:100DF0000449087000F0A2FC00F074FD024908806C
:100E000010BD000033000020FE00002000BFFEE700
:100E100010B501220021104801F07CFC01220421C0
:100E20000D4801F077FC012208210B4801F072FC0B
:100E300004220021084801F07CFC042211460648E7
:100E400001F077FC04220821034801F072FC012123
:100E5000014801F08FFC10BD002C014010B50021AD
:100E6000104801F087FC002211460E4801F052FCA8
:100E7000002204210B4801F04DFC00220821094802
:100E800001F048FC00221146064801F052FC002205
:100E90000421044801F04DFC00220821014801F022
:100EA00048FC10BD002C01407047000070B50021C7
:100EB00000230F22C47804B3154C246804F4E064C2
:100EC000C4F5E064210AC1F10403CA40447804FA7D
:100ED00003F184781440214309010E4C0678A15592
:100EE000047804F01F050124AC4005786D11AD00B5
:100EF00005F1E025C5F8004109E0047804F01F057C
:100F00000124AC40044D0678761145F8264070BDAA
:100F10000CED00E000E400E080E100E00249014364
:100F2000024A1160704700000000FA050CED00E075
:100F300010B5002807DA0A07140E054A00F00F035F
:100F40001B1FD45403E00A07130E024A135410BDAA
:100F500018ED00E000E400E010B54FF47A732E4C79
:100F600023806E2303804FF48063438002238380B9
:100F70005B03C380002303834FF4005343830023A8
:100F8000C3614FF4004303815B1E43815B07C36071
:100F9000224B0361002343614B61214C23806E236C
:100FA0000B804FF480634B8002238B805B03CB80EC
:100FB00000230B834FF400534B830023CB614FF48A
:100FC00000430B815B1E4B815B07CB60134B0B61B6
:100FD00000234B6153619623124C23804FF44873D6
:100FE0001380102353804FF4967393804FF48073D3
:100FF000D38000231383102353830023D3614BF644
:101000007223138144F28E535381074BD3605B42AA
:1010100013610023536110BD3A00002000C0FF1F80
:101020003C000020720000200072BAFF2DE9F0475A
:1010300006460F46A6EB070CB2F9000000FB0CF8C1
:10104000908810B90020506120E0B2F9040000FB44
:101050000CF1D2F814904FEAE97019EB010340EB60
:10106000E17410694FEAE079C01A79EB040902DAF9
:10107000106950610AE0D0684FEAE079181A74EB01
:10108000090002DAD068506100E05361508898FB93
:10109000F0F0B2F806A0D2F8149099FBFAF900EB40
:1010A0000905B2F90A00A84203DCB2F90A00BDE85A
:1010B000F087B2F90800A84202DDB2F90800F6E7AD
:1010C00028B2F4E72DE9F34F83B08846404601F09B
:1010D00029FD0090244800990160BDF90C002249C7
:1010E000B1F9001000FB01F63046F11706EB514153
:1010F000CE13BDF90E001C49B1F9021000FB01F737
:101100003846F91707EB5141CF130FFA86FB38B277
:1011100001900198ABEB000000B2ADF80800BDF9FA
:101120000C001149B1F9021000FB01F42046E1174F
:1011300004EB5141CC13BDF90E000B49B1F900107D
:1011400000FB01F52846E91705EB5141CD130FFAD5
:1011500084F90FFA85FA09EB0A0000B2ADF80A002B
:10116000029805B0BDE8F08F5400002070470000E1
:1011700001460020034A506820F440400843506074
:10118000704700000010024029B1064A526902432C
:10119000044B5A6104E0034A52698243014B5A618D
:1011A000704700000010024029B1064A92690243CC
:1011B000044B9A6104E0034A92698243014B9A61AD
:1011C000704700000010024029B1064AD26802436D
:1011D000044BDA6004E0034AD2688243014BDA60D0
:1011E000704700000010024030B5002100220024AA
:1011F00000232D4D6D6805F00C0121B1042905D0A7
:10120000082923D105E0294D056022E0274D05601E
:101210001FE0254D6D6805F47012234D6D6805F4CF
:101220008034022505EB92421CB9214D55430560DF
:101230000BE01D4D6D6805F400351DB11C4D554387
:10124000056002E0194D5543056002E0174D056049
:1012500000BF00BF144D6D6805F0F0010909154D80
:101260006B5C0568DD4045600F4D6D6805F4E0611D
:10127000090A104D6B5C4568DD4085600A4D6D685C
:1012800005F46051C90A0B4D6B5C4568DD40C560D3
:10129000054D6D6805F44041890B074D6B5CC568D1
:1012A000B5FBF3F5056130BD0010024000127A0075
:1012B00000093D001A0000202A00002010B518493E
:1012C000B1F900104943164AB2F90220144BB3F9A0
:1012D000023002FB0310134988421FD9000E3D382B
:1012E000C2B2114B33F812100D4AB2F9002002FBC2
:1012F00001F00246C31700EB5343DB131BB2084C4B
:1013000023802246B2F9022002FB01F00246C317F5
:1013100000EB5343DB131BB2638000BF10BD000022
:10132000680000202196753DDC340008F7B51446AE
:10133000DF480068DF49B1F9001090FBF1F0BDF81B
:101340000410401A00B2DC490880DC480068D94922
:10135000B1F9001090FBF1F0BDF80610401A00B290
:10136000D7490880BDF90000611000FB01F6F013B9
:1013700000B2D4490880BDF90200611000FB01F6FB
:10138000F01300B2D0490880C9480068C949B1F9D2
:10139000001090FBF1F000B2C5490968CB4AB2F9E0
:1013A000002002FB1010CA49B1F90010C24AB2F97C
:1013B000002001FB0200C749B1F90010C14AB2F98F
:1013C000002001FB0201C4480068C44AB2F90020B1
:1013D00090FBF2F000B2C24AB2F9002002FB1010FA
:1013E000C0490860BD48B0F90000BF49B1F900101C
:1013F0004843BE49096891FBF0F1B7480068BC4A10
:10140000B2F90020AC4BB3F9003002FB0302B9483B
:10141000B0F90000B84BB3F90030584300FB01208D
:10142000B6490860A5480068A249B1F9001090FBD0
:10143000F1F000B2A1490968A44AB2F9002002FB08
:101440001010A349B1F900109D4AB2F9002001FB28
:101450000200A049B1F900109B4AB2F9002001FB3B
:101460000200A24909689D4AB2F9002091FBF2F1FD
:1014700009B29B4AB2F9002002FB1100A0490860A2
:101480009648B0F900009849B1F9001048439249D4
:10149000096891FBF0F195480068954AB2F900207F
:1014A000874BB3F9003002FB03029248B0F9000009
:1014B000914BB3F90030584300FB1120914908606B
:1014C0000125854800688549B1F9001090FBF1F0CD
:1014D00000B28D490880854800688049B1F9001044
:1014E00090FBF1F000B2894908800A461288524206
:1014F0006A4311B2844A12886A4310B2FFF712FAA3
:10150000834908800846B0F9000000F087FF814851
:1015100000887F490988084400B27E4908807148E4
:10152000006863490860754800686B490860744842
:10153000006862490860734800686C490860674841
:10154000B0F90000C0EBC0306349096888420DDA89
:101550006248B0F90000C0EBC0305F4908606E48D7
:101560000088401C00B26C49088015E05B48B0F967
:101570000000C00340425849096888420CDB5748C4
:10158000B0F90000A0EBC030534908606348008800
:10159000401C00B2614908805048B0F90000C0EB1F
:1015A000C0305249096888420DDA4C48B0F9000051
:1015B000C0EBC0304D49086059480088401C00B25B
:1015C0005749088015E04548B0F90000C003404283
:1015D0004649096888420CDB4048B0F90000A0EB9E
:1015E000C030424908604F480088401C00B24D4955
:1015F00008803048B0F90000C0EBC0302C490968C1
:1016000088420DDA2B48B0F90000C0EBC030284901
:10161000086045480088401C00B24349088015E036
:101620002448B0F90000C0034042214909688842BB
:101630000CDB2048B0F90000A0EBC0301C4908606A
:101640003A480088401C00B2384908801948B0F96F
:101650000000C0EBC0301949096888420DDA15480E
:10166000B0F90000C0EBC030144908603048008871
:10167000401C00B22E49088015E00E48B0F9000069
:10168000C00340420D49096888420CDB0948B0F9A3
:101690000000A0EBC0300949086026480088401CC3
:1016A00000B224490880012023490870FEBD0000D3
:1016B0008C000020B4000020F800002090000020E2
:1016C000FA000020F4000020F6000020BA000020FC
:1016D000B0000020BE00002094000020B6000020D2
:1016E000BC000020E4000020B8000020980000208A
:1016F000B2000020C0000020A6000020EC00002066
:10170000E8000020F0000020A0000020A20000203F
:10171000CA000020A4000020CC000020CE00002041
:10172000D0000020D2000020D4000020D6000020ED
:10173000D8000020DA000020E000002070B5002072
:101740000022002105E01E4C34F9114020444C1CBD
:10175000E1B24029F7DB0446C51700EB9565A811F7
:1017600004B2184D2C80002107E0154C34F91140CB
:10177000231A5B431A444C1CE1B24029F5DB1446A2
:10178000D51702EB9565AA1140430446C51700EB37
:101790005565ED110C4E368805FB06F0824205DDDD
:1017A00000240A4D2C700A4D2C7004E00124074DD2
:1017B0002C70074D2C700124064D2C7070BD00005C
:1017C000C8020020A6000020C8000020AE000020B3
:1017D000FC000020E10000202DE9F04740F232300B
:1017E0002A49088041F2A9002949088042F2FC7088
:1017F000284908800120284908804FF03F0A0BE063
:1018000050460AEBD07149100FFA81FA224800883D
:10181000400000B220490880BAF1000FF0D11E4903
:10182000B1F9001043F6FA725143480001F041FD4E
:1018300006461A4A1A4B01F053FD04460022194B82
:1018400001F0B0FB804601F005FD00B216490880AA
:101850004FF465401549088041F24810144908804A
:101860004FF40570134908800C201349088043F693
:10187000FA70124908801249088040F2EB101149B1
:1018800008600C2010490880BDE8F087BA000020ED
:10189000BC000020BE000020B8000020A7E8482EB1
:1018A000FF2109400000F040C0000020B0000020EF
:1018B000B2000020A8000020AA000020B4000020F0
:1018C000B6000020C4000020C80000200148B0F984
:1018D00000007047A40000200148B0F900007047E4
:1018E000A600002000B5FFF7F7FF4FF47A525043EF
:1018F00000EB80004100C81701EBD030401400BD60
:1019000000B500200B4908600B4908600B490860CE
:101910000B4908600B4908700B4908600B490870B7
:101920000B4908700B4908800B49088000F016F835
:1019300000BD00008C0000209000002094000020DA
:1019400098000020AE0000209C000020AC00002089
:10195000AD000020A4000020A6000020002005E02B
:101960000021054A22F81010411CC8B24028F7DBBC
:101970000021024A11707047C8020020AF00002009
:101980000148007870470000AE00002010B53B48C9
:10199000007820B1012815D002286CD116E0384813
:1019A000B0F90000002805DB0920364908803649D7
:1019B000088003E06FF008003249088001202F49B9
:1019C000087059E002202D49087055E02F48006842
:1019D000401C2E49086008460068B0F57A5F08D8B8
:1019E0002B4800682749B1F90010084428490860CD
:1019F0000DE0264800684BF68031884207D824481D
:101A000000682049B1F90010084421490860FFF737
:101A1000DFF858B11F48B0F9000000021E494861C4
:101A200003201649087001201C49087018490868ED
:101A3000C11700EB11410C144FF47A5090FBF4F0F5
:101A40004FF4803191FBF0F015490988084400B249
:101A5000134908800846B0F90000124908804FF485
:101A60007A700C4908800846B0F900000E490880D9
:101A70000020488000E000BF00BF10BD70000020C3
:101A800072000020800000208A00002078000020E2
:101A90007C0000203A000020A802002076000020F0
:101AA00074000020880000206800002070470000BB
:101AB0002DE9F1430024002500260027BDF9000090
:101AC00043F6E4414843FE490860BDF9020042F292
:101AD000283148434042FB49086008460068FA49FB
:101AE0000860F8490968F64A1268881800EBD07156
:101AF0004910F64A1160F3490968F14A1268881AD8
:101B000000EBD0714910F24A1160F04800680028DB
:101B100013DA10460068002803DA0520ED49087042
:101B20001EE0E9480068002803DC0420E949087049
:101B300016E00320E749087012E0E5480068002835
:101B400003DB0220E34908700AE0DF480068002850
:101B500003DC0620DF49087002E00120DD4908703F
:101B60000020DD490870DB48007807287DD2DFE8D7
:101B700000F07C0459B0FDFCFB00D34A126842F22D
:101B800028331A44D24B1B68D11A01EBD172501082
:101B9000C21700EBD232521402F2654294B2CC4921
:101BA0000868C11700EBD13104EB61418DB2C64921
:101BB0000868C11700EBD131A5EB61418EB240F648
:101BC000CA00001B80B2FF2802DD40F6C9071CE0F6
:101BD000601B1FFA80F840F6CA00001B80B2B8EB09
:101BE000400F03DDA4F1330087B20EE004F1FF00E3
:101BF00087B240F6CA00874207DB0120B649087069
:101C000041F29410C01B401E87B201231A460721DF
:101C1000B248FEF7FDFC012302220E21AF48FEF779
:101C2000F7FCC0E1A94A126842F228331A44A84BD3
:101C30001B68D11A01EBD1725010C21700EBD232DF
:101C4000521402F2654294B2A1490868C11700EB30
:101C5000D13104EB61418DB29C490868C11700EB9A
:101C6000D131A4EB61418EB200E09BE140F6CA00A5
:101C7000401B80B2FF2802DD40F6C9071CE0281B8C
:101C80001FFA80F840F6CA00401B80B2B8EB400F44
:101C900003DDA5F1330087B20EE005F1FF0087B246
:101CA00040F6CA00874207DB01208B49087041F2E9
:101CB0009410C01B401E87B201231A460621874894
:101CC000FEF7A6FC012302220E218448FEF7A0FCA9
:101CD00069E17D4A126842F228339A1A7B4B1B68ED
:101CE000D11801EBD1725010C21700EBD23252144E
:101CF00002F2654294B275490868C11700EBD13110
:101D0000A4EB61418EB270490868C11700EBD13174
:101D100006EB61418DB240F6CA00401B80B2FF283D
:101D200002DD40F6C9071CE0A81B1FFA80F840F648
:101D3000CA00401B80B2B8EB400F03DDA5F13300B1
:101D400087B20EE005F1FF0087B240F6CA00874275
:101D500007DB01206049087041F29410C01B401E4F
:101D600087B201231A4602E0C7E060E00AE00621DC
:101D70005A48FEF74DFC012302220E215748FEF778
:101D800047FC10E1504A126842F228331A44504B83
:101D90001B68D11A01EBD1725010C21700EBD2327E
:101DA000521402F2654294B249490868C11700EB27
:101DB000D13104EB61418DB243490868C11700EB92
:101DC000D131A5EB61418EB240F6CA00801B80B2D2
:101DD000FF2802DD40F6C9071CE0701B1FFA80F8DF
:101DE00040F6CA00801B80B2B8EB400F03DDA6F1BD
:101DF000330087B20EE006F1FF0087B240F6CA005A
:101E0000874207DB01203449087041F29410C01B5F
:101E1000401E87B201231A4606213048FEF7F8FB20
:101E20000123022207212D48FEF7F2FBBBE0274ADF
:101E3000126842F228331A44254B1B68D11A01EB71
:101E4000D1725010C21700EBD232521402F2654226
:101E500094B21F490868C11700EBD13104EB61410E
:101E60008DB21A490868C11700EBD131A4EB61416A
:101E70008EB240F6CA00801B80B2FF2802DD40F619
:101E8000C9071CE0301B1FFA80F840F6CA00801B0F
:101E900080B2B8EB400F03DDA6F1330087B20EE04D
:101EA00006F1FF0087B240F6CA00874207DB012037
:101EB0000949087041F29410C01B401E87B20FE020
:101EC00030010020340100202401002028010020DE
:101ED0002C010020210100202001002000240140CD
:101EE00001231A4606213E48FEF792FB01230222F7
:101EF00007213B48FEF78CFB55E03A4A126842F254
:101F000028339A1A384B1B68D11801EBD172501044
:101F1000C21700EBD232521402F2654294B2324937
:101F20000868C11700EBD131A4EB61418EB22D4995
:101F30000868C11700EBD13106EB61418DB240F664
:101F4000CA00001B80B2FF2802DD40F6C9071CE072
:101F5000A01B1FFA80F840F6CA00001B80B2B8EB45
:101F6000400F03DDA4F1330087B20EE004F1FF005F
:101F700087B240F6CA00874207DB01201B49087080
:101F800041F29410C01B401E87B201231A4607215C
:101F90001348FEF73DFB012302220E211048FEF7F5
:101FA00037FB00E000BF00BF1048007838B9104888
:101FB00000884DF6FF7108400D49088005E00C4887
:101FC000008840F400500A49088009481430048011
:101FD000001D0580001D0680001D0780BDE8F883F8
:101FE00000240140240100202801002020010020BD
:101FF000202C014008B57748007807287ED2DFE81A
:1020000000F0E44D999A04054C0000BF1421724879
:10201000FEF7B6FA71490988A1EB400070490860E3
:102020000846006810F5004F04DA4FF40040ADF8A0
:1020300000000EE06A480068B0F5004F04DB47F688
:10204000FF70ADF8000004E06548008800B2ADF80C
:10205000000018216048FEF793FA62490988A1EB55
:1020600040005F4908600846006810F5004F04DA38
:102070004FF40040ADF802000EE059480068B0F59A
:10208000004F04DB47F6FF70ADF8020004E054484F
:10209000008800B2ADF8020098E000BF14214E485D
:1020A000FEF76EFA4F490988A1EB40004C490860E1
:1020B0000846006810F5004F04DA4FF40040ADF810
:1020C00002000EE046480068B0F5004F04DB47F61A
:1020D000FF70ADF8020004E04148008800B2ADF89E
:1020E000020018213C48FEF74BFA3F490988C1EB32
:1020F0004000BDF90210401A394900E065E008606F
:1021000008460068B0F5004F04DB47F6FF70ADF8F5
:1021100000000EE03248006810F5004F04DA4FF47A
:102120000040ADF8000004E02D48008800B2ADF892
:1021300000004BE000BF14212748FEF721FA274991
:102140000988A1EB4000264908600846006810F5A0
:10215000004F04DA4FF40040ADF800000EE02048D4
:102160000068B0F5004F04DB47F6FF70ADF80000E3
:1021700004E01B48008800B2ADF8000018211648A2
:10218000FEF7FEF918490988C1EB4000BDF90010BF
:10219000401A1349086008460068B0F5004F04DB98
:1021A00047F6FF70ADF802000EE00D48006810F52C
:1021B000004F04DA4FF40040ADF8020004E0084894
:1021C000008800B2ADF8020000E000BF00BF009838
:1021D00008BD000021010020002401404C00002027
:1021E000380100204E0000205000002010B500F003
:1021F00001F810BD0CB50020019000903348006834
:1022000040F480303149086000BF3048006800F475
:10221000003000900198401C0190009818B9019876
:10222000B0F5A06FF1D12948006800F4003010B17A
:102230000120009001E0002000900098012843D187
:102240002348006840F010002149086008460068F3
:1022500020F0030008600846006840F002000860B3
:102260001A4840681949486008464068486008466E
:10227000406840F4806048600846406820F47C1064
:1022800048600846406840F4E81048600846006826
:1022900040F08070086000BF0C48006800F00070DB
:1022A0000028F9D00948406820F003000749486039
:1022B0000846406840F00200486000BF034840689C
:1022C00000F00C000828F9D10CBD000000100240FD
:1022D0000020024070B502460024881A444B186062
:1022E0004448B0F900001B685843434B186043480A
:1022F000B0F900003E4B1B685843414B1860414801
:102300000068002819DB18460068002815DB3E48E5
:10231000007890B93B4800681B681844002804DA2C
:102320006FF00040374B18602CE036480068344BA3
:102330001B681844334B186024E0324800680028BA
:1023400019DC2F480068002815DC3048007890B967
:102350002C4800682A4B1B681844002803DD2C48D1
:10236000284B18600EE027480068254B1B6818446E
:10237000244B186006E023480068214B1B68184472
:10238000204B18601C4D2B68DD1703EB9545AD13F2
:102390001C4E3068C61700EB963605EBA6451D4E61
:1023A0003560304600681C4B1B68984207DD0120F1
:1023B000154B1870184800683346186014E015482B
:1023C0000068154B1B685B42984208DA01200F4BEE
:1023D00018701148006840420E4B186004E000205D
:1023E000094B1870094B18700A48008800B270BD7C
:1023F00010010020A800002018010020AA000020E1
:102400001C0100209C000020AC000020AD0000203A
:102410000100008014010020C40000200849097850
:10242000491C074A117011460978402901D1002141
:1024300011700449024A127821F812007047000016
:10244000AF000020C802002010B501211D20FEF7BA
:10245000ABFE01211348FEF75BFB1348006842F214
:102460001071B0FBF1F4B4F1807F01D3012011E0D1
:1024700024F07F40401E4FF0E02148610F214FF0D3
:10248000FF30FEF755FD00204FF0E0218861072066
:102490000861002008B100BFFEE70021481EFEF7DA
:1024A00047FD10BD00023000000000200B480078FE
:1024B000401EC0B20949087018B9012008700849C7
:1024C000087008480078401EC0B20649087020B95C
:1024D0001020087001200449087070474A0000204D
:1024E000330000204B0000203800002010B51348B6
:1024F000006840F001001149086008464068104932
:1025000008400E494860084600680E4908400B49DB
:1025100008600846006820F480200860084640688B
:1025200020F4FE0048604FF41F008860FFF75EFE55
:102530004FF000600449086010BD00000010024028
:102540000000FFF8FFFFF6FE08ED00E008B50121EE
:102550000C20FEF729FE0121C802FEF725FE4FF4EC
:10256000E060ADF8000003208DF8020018208DF81F
:10257000030069460B48FEF736FA4FF46040ADF8A9
:10258000000003208DF8020018208DF80300694632
:102590000548FEF728FA4FF4E0610248FEF7AEFA6C
:1025A00008BD000000080140000C014000B58DB0DE
:1025B00040F6CA00ADF82C000020ADF828004FF41A
:1025C0008070ADF82E002020ADF82A0001208DF893
:1025D00030000AA9474800F053FA6020ADF818000F
:1025E0000120ADF81A000420ADF81C000020ADF861
:1025F0002000ADF82200ADF824004FF40070ADF8D3
:1026000026004FF44870ADF81E0006A9394800F0C6
:10261000C9F84FF44870ADF81E0006A9354800F01F
:1026200017F94FF44870ADF81E0006A9314800F0C4
:102630006FF902A800F011FA7020ADF8080001202F
:10264000ADF80A000020ADF80C0040F6C900ADF866
:102650000E000020ADF810000820ADF81200002098
:10266000ADF81400ADF8160002A9224800F0AAF94E
:102670000821204800F0E2F808211E4800F03AF94D
:1026800008211C4800F094F908211A4800F0D8F9F4
:1026900019208DF8040000208DF805008DF8060043
:1026A00001208DF8070001A8FEF700FC0121880237
:1026B000FEF788F920210F4800F0D9F901210D48D3
:1026C00000F046F801210B4800F045F800221021E7
:1026D000084800F05EF801221146064800F059F85B
:1026E0000121044800F046F80121024800F036F8C4
:1026F0000DB000BD002C014010B5FFF727FFFFF71C
:1027000055FF10BD10B50121014800F021F810BDA2
:10271000002C014030B5002301248C40A3B2048C6E
:102720009C430484048C02FA01F5ADB22C4304846A
:1027300030BD30B5002304248C40A3B2048C9C43EC
:102740000484048C02FA01F5ADB22C43048430BD3C
:10275000CA4302827047CA430282704721B102888D
:1027600042F00102028004E002884FF6FE731A4034
:102770000280704731B1B0F8442042F40042A0F822
:10278000442005E0B0F84420C2F30E02A0F8442033
:1027900070471AB183890B43838102E083898B439D
:1027A0008381704770B5002400220023058C4FF60A
:1027B000FE7635400584028C8388048B4FF68F7536
:1027C0002C40B51E2C400D882C43751E2A400D89C7
:1027D0002A434D882A43144DA8420BD0134DA842DA
:1027E00008D0134DA84205D0124DA84202D0124D78
:1027F000A84213D14FF6F7752A404D892A434FF668
:10280000FB752A408D882A434FF6FF652B404FF613
:10281000FF552B408D892B43CD892B438380048327
:10282000CD888586028470BD002C014000340140B3
:102830000040014000440140004801400A46002198
:10284000018B4FF6F7731940114301837047000065
:1028500070B5002400220023058C4FF6EF7635403A
:102860000584028C8388048B48F6FF752C404FF654
:10287000FF452C400D884FF6FF7606EA05252C43D0
:102880004FF6DF752A400D8906EA05152A434D8863
:1028900006EA05152A43154DA84202D0144DA84258
:1028A0001DD14FF67F752A404D894FF6FF7606EA17
:1028B00005152A434FF6BF752A408D8806EA05158F
:1028C0002A434FF6FF352B404FF2FF752B408D8981
:1028D00006EA85052B43CD8906EA85052B438380CF
:1028E0000483CD880587028470BD0000002C014060
:1028F000003401400A460021018B4FF2FF7319405A
:102900004FF6FF7303EA0223194301837047000067
:1029100070B5002400220023058C4FF6FF66354079
:102920000584028C8388848B4FF68F752C404FF67C
:10293000FC752C400D882C434FF6FF552A400D891D
:102940004FF6FF7606EA05252A434D8806EA052557
:102950002A43154DA84202D0144DA8421DD14FF272
:10296000FF752A404D894FF6FF7606EA05252A4372
:102970004FF6FF352A408D8806EA05252A434EF694
:10298000FF752B404DF6FF752B408D8906EA051526
:102990002B43CD8906EA05152B4383808483CD889C
:1029A0008587028470BD0000002C01400034014086
:1029B0000A460021818B4FF6F7731940114381833A
:1029C0007047000070B5002200230024058C4EF6ED
:1029D000FF7635400584038C8488828B48F6FF752A
:1029E0002A404FF6FF452A400D884FF6FF7606EA4B
:1029F00005252A434DF6FF752B400D8906EA05355E
:102A00002B434D8806EA05352B430B4DA84202D0D7
:102A10000A4DA84208D14BF6FF752C408D894FF620
:102A2000FF7606EA85152C4384808283CD88A0F842
:102A30004050038470BD0000002C01400034014070
:102A40000A460021818B4FF2FF7319404FF6FF7346
:102A500003EA0223194381837047002101804180EA
:102A60008180C180018141818181C18170478288DB
:102A70004FF68F731A40828082880A4382807047A3
:102A8000002202881D4B98420ED01D4B98420BD05D
:102A9000B0F1804F08D01B4B984205D01A4B98429A
:102AA00002D01A4B984204D14FF68F731A404B88CC
:102AB0001A43174B984207D0164B984204D04FF652
:102AC000FF431A40CB881A4302808B8883850B888A
:102AD00003850A4B98420BD0094B984208D00E4B05
:102AE000984205D00D4B984202D00D4B984201D12F
:102AF0000B7A03860123838270470000002C01407B
:102B0000003401400004004000080040000C004078
:102B1000001000400014004000400140004401400B
:102B20000048014008B5024602F5004081B208465F
:102B3000CB1701EB9363991101F4407038B3B0F5F2
:102B4000807F36D0B0F5007F03D0B0F5407F40D114
:102B50000DE0C8B2214B33F81000ADF80200C8B246
:102B6000C0F1FF0033F81000ADF8000032E0C8B249
:102B7000C0F1FF00194B33F81000ADF80200C8B2E5
:102B800033F81000404200B2ADF8000022E0C8B2B5
:102B9000124B33F81000404200B2ADF80200C8B248
:102BA000C0F1FF0033F81000404200B2ADF8000061
:102BB00010E0C8B2C0F1FF00084B33F810004042EB
:102BC00000B2ADF80200C8B233F81000ADF8000052
:102BD00000E000BF00BF009808BD0000623500089B
:102BE00010B58021064800F0A5F840B1054890F8DE
:102BF000350020B100F030F80149091D088010BDF2
:102C000000380140300200200146124890F835009B
:102C1000202801DB002070470E4890F83320103048
:102C20008154103890F83300401C0A4A82F833006F
:102C3000104690F83300202802DB002082F8330091
:102C4000044890F83500401C024A82F83500012003
:102C5000E1E70000300200200D4991F832201031E8
:102C6000885C103991F83210491C094A82F83210F8
:102C7000114691F83210202902DB002182F832102F
:102C8000034991F83510491E014A82F83510704702
:102C90003002002010B540F225511D4800F057F8D1
:102CA00010B31B4800F00EF9C4B21A48008800F4B3
:102CB0000040C8B91748008800F4804060B10A2C71
:102CC00003D000201349088020E01248008840F417
:102CD00000401049088019E00D2C06D10D480088ED
:102CE00040F480400B49088010E00A480088C0F397
:102CF0000D0009490C5407480088401C054908800C
:102D000008460088C72801DD0020088010BD0000AB
:102D100000380140180000206801002021B182899C
:102D200042F40052828104E082894DF6FF731A401A
:102D30008281704702460020B1F5007F00D100BFBC
:102D400013880B400BB1012000E00020704770B5E4
:102D50000246002400230025002040F66A16B142F6
:102D600000D100BFC1F3421501F01F03012606FA8E
:102D700003F3012D02D19689334006E0022D02D1E2
:102D8000168A334001E0968A33400C12012606FA77
:102D900004F41688344013B10CB1012000E0002087
:102DA00070BDF0B50346002400260025002040F643
:102DB0006A17B94200D100BF1846C1F3421401F0AE
:102DC0001F06012707FA06F5012C01D10C3004E09B
:102DD000022C01D1103000E014301AB107682F43E3
:102DE000076002E00768AF430760F0BD2DE9F047D8
:102DF00086B005460E460024A24600BFA146002725
:102E0000B08900B100BF2F462C8A4CF6FF700440F9
:102E1000F08804432C82AC894EF6F3100440B0884D
:102E200031890843718908430443AC81AC8A4FF669
:102E3000FF400440B0890443AC8201A8FEF7D4F9F6
:102E40001F48874202D1DDF810A001E0DDF80CA098
:102E5000A88900F4004040B10AEBCA0000EB0A1058
:102E600031684900B0FBF1F807E00AEBCA0000EB5B
:102E70000A1031688900B0FBF1F86420B8FBF0F06B
:102E800004012009642101FB1089A88900F4004095
:102E900040B1322000EBC900B0FBF1F000F00700B8
:102EA000044308E0322000EB09106421B0FBF1F08C
:102EB00000F00F0004432C8106B0BDE8F08700004D
:102EC0000038014001468888C0F30800704700BF01
:102ED000FEE7014600BF7047FFF7B6FAFDF766FF51
:102EE0009920FFF791FE5520FFF78EFE03E0FDF7D6
:102EF00079FFFFF775FEFAE710B586B004460121A9
:102F000044F20800FEF750F901210846FEF74CF99B
:102F100001210420FDF7FCFD4020ADF81400032042
:102F20008DF8160018208DF8170005A91B48FDF72D
:102F30005AFD8020ADF8140004208DF8170005A973
:102F40001648FDF750FD25208DF8000003208DF870
:102F500001008DF8020001208DF803006846FDF79E
:102F6000A5FF01940020ADF80800ADF80A00ADF807
:102F70000C00ADF810000C20ADF80E0001A90848B7
:102F8000FFF734FF012240F225510548FFF709FF02
:102F900001210348FFF7C2FE06B010BD000C01403E
:102FA000003801402DE9C04130B4DFF8A0C23CEA4E
:102FB000111418BF3CEA131400F0EC8081EA0305F9
:102FC0001CEA111444EAD57418BF1CEA131500F06A
:102FD000C780A4EB05044FF0004545EAC12145EA4E
:102FE000C32341EA505143EA525304F17F7499429A
:102FF00004F500344FEAC0204FEAC22208BF9042D5
:1030000000F09C804FEA13650FF24016765D4FEAA0
:10301000134506FB05F7C7F1807706FB07F74FEA74
:10302000D737A7FB03687642C8F58038A7FB06CEE2
:1030300038BFA8F1010807FB08E64FF0000EA6FB19
:10304000028CE6FB03CEDCF1000CCEF1004E38BF63
:10305000AEF1010EA6FB0C584FF000074FF0000533
:10306000E6FB0E87A1FB08C6A0FB07CE16EB0E06FB
:1030700045F10005E1FB076515F1E04E7EBFA4F5C3
:1030800080345FEA46066D4116F1800745F1000580
:103090004FEA17274FEA066647EA0567A6F1DE46BC
:1030A000B6F1805F4FEA15251FD9384624F0010C90
:1030B00005EBC471BCF1FE6F01EB0C1102D8F0BC42
:1030C000BDE8008124425CBF01F5801E9EEAC47FFA
:1030D00002D4F0BCBDE80081244238D4F0BCA1F198
:1030E000C041BDE8004100F0F3B94FEAD22242EA04
:1030F00043524FEAD323A7FB02864FEAD02040EA8F
:10310000415007FB03661EEA0E0F4FEAD12105FB73
:10311000026658BFA6EB0056B6EB00564FEA520EB9
:103120004EEAC37E18EB0E0E56EB530EBDD518EBD0
:1031300002085E417F1C55F10005B6E74FF480158B
:103140004FF000074FF000064FF00008ADE7F0BC6D
:103150004FF0000001F1C04101F00041BDE80081E5
:1031600011EA0C1F0CEA131500D00CE013EA0C1F37
:1031700000F025804FF00000F0BC81EA030101F06F
:103180000041BDE80081F0BCBDE8004181EA0301D7
:1031900000F09EB9F0BCBDE8004170B500F04AF9FE
:1031A000097EFC3E00F007B881EA03014FF0000001
:1031B00001F00041704781EA030100F089B9F0BCD9
:1031C000BDE800414FF0000021497047FFFDFBF9C9
:1031D000F7F5F4F2F0EEEDEBE9E8E6E4E3E1E0DE4A
:1031E000DDDBDAD8D7D5D4D3D1D0CFCDCCCBCAC8BC
:1031F000C7C6C5C4C2C1C0BFBEBDBCBBBAB9B8B7E3
:10320000B6B5B4B3B2B1B0AFAEADACABAAA9A8A8D5
:10321000A7A6A5A4A3A3A2A1A09F9F9E9D9C9C9BA3
:103220009A9999989797969595949393929191904E
:103230008F8F8E8E8D8C8C8B8B8A898988888787DF
:103240008685858484838382828181800000FF0754
:103250000000F87F4FEA41034FEA5353A3F5806320
:10326000D3F11E03C8BFD3F1210C0CDD4FF0004297
:1032700042EAC12242EA505232FA03FC8CEAE17C73
:10328000ACEBE1707047102BC4BF0020704703F512
:10329000787CBCF1FF3F04D06FF0004282EA21004D
:1032A000704770B500F0C6F849922480002070473E
:1032B000F2E710F0004248BF4042B0FA80F310FA43
:1032C00003F10AD0C3F11D0303F580634FEA4150B7
:1032D00002EB035202EBD12170474FF00000704720
:1032E000DFF848C170B51CEA111E1EBF1CEA131599
:1032F0009EEA0C0F95EA0C0F00F06F8081EA030440
:1033000023EA4C134EEAD47E21EA4C1141F4801199
:1033100043F48013AE44A1FB024CA0FB0365AEF165
:103320007F7E361955EB0C05A1FB034C4CF10003D5
:10333000A0FB021C16EB0C06654153F10003094289
:1033400018BF46F0010613F4007F0BD14FEA03319A
:103350004FEA0530340341EA155140EA16506FF048
:1033600003020AE04FEAC3214FEAC520F40241EA12
:10337000555140EA56506FF0020202EB2E4201EB2B
:10338000025585EACE710AD05FEA440C18BF24F0DA
:10339000004450F1000041F1000120EAD47040F2F5
:1033A000FE7C624500D270BDA84214BF4FF080443D
:1033B0004FF04044002E08BF0024BEF1806FA8BF2C
:1033C000A1F1C041BDE8704080F282804FF0000062
:1033D00001F1C04101F0004170479EEA0C0F0CEA78
:1033E000131518BF95EA0C0F06D04FF0000081EAC4
:1033F000030E0EF0004170BD00F01CF88900013E84
:1034000000F007B800F009B84FEA430C5FEA5C5CD3
:1034100008D081EA030100F05BB84FEA410C5FEA93
:103420005C5CF6D14FF00000014970470000FF07D7
:103430000000F87F0EF1020E2EF0030E5EF8046B12
:10344000364205D4012A43EB030515F5001F12D8B7
:10345000012841EB010C1CF5001F0CD80ED14FEADE
:10346000D17C15F5001F0CEB4C0C0CF1020C08BFC5
:103470004CEBD37C04E04FF0080C01E04FEAD37C26
:103480000CEB4C0526FA05F606F00706B6F1040C1F
:1034900006D20EEB860CBDE870404CF0010C604784
:1034A000DFE80CF0090B02024FF000414FF0000082
:1034B000A1F5002170BD19461046012851EB010409
:1034C00018BFD4F5001484BF002001F0004170BD86
:1034D0000808A0F500114FEA31017047EE7E687EC2
:1034E000607D5F7C637B6E7A7E799478AF77CF76F0
:1034F000F4751D754B747D73187351728D71CE7098
:1035000012705A6FA56EF46D466D9B6CF36B4E6B2B
:10351000AD6A5D6ABF6924698C68F6676367D266C5
:103520004466B7652D65A66420649C635B63DB62BB
:103530005C62DF616461EB607460FE5F8A5F175FED
:10354000A65E375EC95D5D5D285DBD5C555CED5B6B
:10355000875B235BBF5A5D5AFC599D593E59E15820
:1035600085580000C90092015B022403ED03B604F4
:103570007F0548061107D907A2086A09330AFB0A22
:10358000C40B8C0C540D1C0EE30EAB0F72103A11D1
:103590000112C8128F1355141C15E215A8166E17C8
:1035A0003318F918BE19821A471B0B1CCF1C931D28
:1035B000571E1A1FDD1F9F2061212322E522A6230B
:1035C00067242825E825A82667272628E528A32993
:1035D000612A1F2BDC2B992C552D112ECC2E872FD9
:1035E0004130FB30B5316E322633DF3396344D3502
:1035F0000436BA366F372438D9388C39403AF23A23
:10360000A53B563C073DB83D683E173FC53F73405C
:103610002141CE417A422543D0437A442445CD45C9
:1036200075461C47C34769480F49B449584AFB4A85
:103630009D4B3F4CE04C814D204EBF4E5D4FFB4FAC
:1036400097503351CE51685202539B533254C95450
:103650006055F5558A561D57B0574258D35864598E
:10366000F359825A0F5B9C5B285CB35C3E5DC75D7F
:103670004F5ED75E5D5FE35F6860EB606E61F06137
:103680007162F1627063EE636C64E8646365DD65CA
:103690005666CF664667BC673268A66819698B694B
:1036A000FD696D6ADC6A4A6BB76B236C8E6CF86CD3
:1036B000616DC96D306E966EFB6E5E6FC16F22706C
:1036C0008370E27040719D71F9715472AE7207732C
:1036D0005E73B5730A745F74B27404755575A5751D
:1036E000F37541768D76D87622776B77B377FA7754
:1036F0003F788478C77809794A798979C879057AD1
:10370000417A7C7AB67AEE7A267B5C7B917BC57BAC
:10371000F87B297C597C887CB67CE37C0E7D397DE6
:10372000627D897DB07DD57DFA7D1D7E3E7E5F7E8A
:103730007E7E9C7EB97ED57EEF7E097F217F377F9E
:103740004D7F617F747F867F977FA67FB47FC17F27
:10375000CD7FD87FE17FE97FF07FF57FF97FFD7F27
:10376000FE7F000084370008000000206801000090
:103770006C010008AC370008680100204008000018
:10378000C80100081184A24A04A00901020304062A
:10379000070809291269165D0204060816011503B7
:0C37A0002601100368E8030914A8017654
:040000050800020DE0
:00000001FF
